{
  "_format": "hh-sol-artifact-1",
  "contractName": "EIP712Forward",
  "sourceName": "contracts/EIP712Forward.sol",
  "abi": [
    {
      "inputs": [
        {
          "internalType": "string",
          "name": "name",
          "type": "string"
        },
        {
          "internalType": "string",
          "name": "version",
          "type": "string"
        }
      ],
      "stateMutability": "nonpayable",
      "type": "constructor"
    },
    {
      "inputs": [],
      "name": "InvalidShortString",
      "type": "error"
    },
    {
      "inputs": [
        {
          "internalType": "string",
          "name": "str",
          "type": "string"
        }
      ],
      "name": "StringTooLong",
      "type": "error"
    },
    {
      "anonymous": false,
      "inputs": [
        {
          "indexed": true,
          "internalType": "address",
          "name": "sender",
          "type": "address"
        }
      ],
      "name": "AddressRemovedFromWhitelist",
      "type": "event"
    },
    {
      "anonymous": false,
      "inputs": [
        {
          "indexed": true,
          "internalType": "address",
          "name": "sender",
          "type": "address"
        }
      ],
      "name": "AddressWhitelisted",
      "type": "event"
    },
    {
      "anonymous": false,
      "inputs": [],
      "name": "EIP712DomainChanged",
      "type": "event"
    },
    {
      "anonymous": false,
      "inputs": [
        {
          "indexed": true,
          "internalType": "address",
          "name": "from",
          "type": "address"
        },
        {
          "indexed": true,
          "internalType": "address",
          "name": "to",
          "type": "address"
        },
        {
          "indexed": true,
          "internalType": "bytes",
          "name": "data",
          "type": "bytes"
        }
      ],
      "name": "MetaTransactionExecuted",
      "type": "event"
    },
    {
      "anonymous": false,
      "inputs": [
        {
          "indexed": true,
          "internalType": "address",
          "name": "previousOwner",
          "type": "address"
        },
        {
          "indexed": true,
          "internalType": "address",
          "name": "newOwner",
          "type": "address"
        }
      ],
      "name": "OwnershipTransferred",
      "type": "event"
    },
    {
      "anonymous": false,
      "inputs": [
        {
          "indexed": false,
          "internalType": "address",
          "name": "account",
          "type": "address"
        }
      ],
      "name": "Paused",
      "type": "event"
    },
    {
      "anonymous": false,
      "inputs": [
        {
          "indexed": false,
          "internalType": "address",
          "name": "account",
          "type": "address"
        }
      ],
      "name": "Unpaused",
      "type": "event"
    },
    {
      "inputs": [],
      "name": "DOMAIN_SEPARATOR",
      "outputs": [
        {
          "internalType": "bytes32",
          "name": "",
          "type": "bytes32"
        }
      ],
      "stateMutability": "view",
      "type": "function"
    },
    {
      "inputs": [
        {
          "internalType": "address",
          "name": "sender",
          "type": "address"
        }
      ],
      "name": "addSenderToWhitelist",
      "outputs": [],
      "stateMutability": "nonpayable",
      "type": "function"
    },
    {
      "inputs": [],
      "name": "eip712Domain",
      "outputs": [
        {
          "internalType": "bytes1",
          "name": "fields",
          "type": "bytes1"
        },
        {
          "internalType": "string",
          "name": "name",
          "type": "string"
        },
        {
          "internalType": "string",
          "name": "version",
          "type": "string"
        },
        {
          "internalType": "uint256",
          "name": "chainId",
          "type": "uint256"
        },
        {
          "internalType": "address",
          "name": "verifyingContract",
          "type": "address"
        },
        {
          "internalType": "bytes32",
          "name": "salt",
          "type": "bytes32"
        },
        {
          "internalType": "uint256[]",
          "name": "extensions",
          "type": "uint256[]"
        }
      ],
      "stateMutability": "view",
      "type": "function"
    },
    {
      "inputs": [
        {
          "components": [
            {
              "internalType": "address",
              "name": "from",
              "type": "address"
            },
            {
              "internalType": "address",
              "name": "to",
              "type": "address"
            },
            {
              "internalType": "uint256",
              "name": "value",
              "type": "uint256"
            },
            {
              "internalType": "uint256",
              "name": "gas",
              "type": "uint256"
            },
            {
              "internalType": "uint256",
              "name": "nonce",
              "type": "uint256"
            },
            {
              "internalType": "bytes",
              "name": "data",
              "type": "bytes"
            }
          ],
          "internalType": "struct EIP712Forward.ForwardRequest",
          "name": "req",
          "type": "tuple"
        },
        {
          "internalType": "bytes",
          "name": "signature",
          "type": "bytes"
        }
      ],
      "name": "execute",
      "outputs": [
        {
          "internalType": "bytes",
          "name": "",
          "type": "bytes"
        }
      ],
      "stateMutability": "payable",
      "type": "function"
    },
    {
      "inputs": [
        {
          "internalType": "address",
          "name": "from",
          "type": "address"
        }
      ],
      "name": "getNonce",
      "outputs": [
        {
          "internalType": "uint256",
          "name": "",
          "type": "uint256"
        }
      ],
      "stateMutability": "view",
      "type": "function"
    },
    {
      "inputs": [
        {
          "internalType": "address",
          "name": "sender",
          "type": "address"
        }
      ],
      "name": "isWhitelisted",
      "outputs": [
        {
          "internalType": "bool",
          "name": "",
          "type": "bool"
        }
      ],
      "stateMutability": "view",
      "type": "function"
    },
    {
      "inputs": [],
      "name": "owner",
      "outputs": [
        {
          "internalType": "address",
          "name": "",
          "type": "address"
        }
      ],
      "stateMutability": "view",
      "type": "function"
    },
    {
      "inputs": [],
      "name": "pause",
      "outputs": [],
      "stateMutability": "nonpayable",
      "type": "function"
    },
    {
      "inputs": [],
      "name": "paused",
      "outputs": [
        {
          "internalType": "bool",
          "name": "",
          "type": "bool"
        }
      ],
      "stateMutability": "view",
      "type": "function"
    },
    {
      "inputs": [
        {
          "internalType": "address",
          "name": "sender",
          "type": "address"
        }
      ],
      "name": "removeSenderFromWhitelist",
      "outputs": [],
      "stateMutability": "nonpayable",
      "type": "function"
    },
    {
      "inputs": [],
      "name": "renounceOwnership",
      "outputs": [],
      "stateMutability": "nonpayable",
      "type": "function"
    },
    {
      "inputs": [
        {
          "internalType": "address",
          "name": "newOwner",
          "type": "address"
        }
      ],
      "name": "transferOwnership",
      "outputs": [],
      "stateMutability": "nonpayable",
      "type": "function"
    },
    {
      "inputs": [],
      "name": "unpause",
      "outputs": [],
      "stateMutability": "nonpayable",
      "type": "function"
    },
    {
      "inputs": [
        {
          "components": [
            {
              "internalType": "address",
              "name": "from",
              "type": "address"
            },
            {
              "internalType": "address",
              "name": "to",
              "type": "address"
            },
            {
              "internalType": "uint256",
              "name": "value",
              "type": "uint256"
            },
            {
              "internalType": "uint256",
              "name": "gas",
              "type": "uint256"
            },
            {
              "internalType": "uint256",
              "name": "nonce",
              "type": "uint256"
            },
            {
              "internalType": "bytes",
              "name": "data",
              "type": "bytes"
            }
          ],
          "internalType": "struct EIP712Forward.ForwardRequest",
          "name": "req",
          "type": "tuple"
        },
        {
          "internalType": "bytes",
          "name": "signature",
          "type": "bytes"
        }
      ],
      "name": "verify",
      "outputs": [
        {
          "internalType": "bool",
          "name": "",
          "type": "bool"
        }
      ],
      "stateMutability": "view",
      "type": "function"
    }
  ],
  "bytecode": "0x6101606040523480156200001257600080fd5b5060405162001c7338038062001c738339810160408190526200003591620004e4565b8181620000423362000131565b6000805460ff60a01b191690556200006882600162000181602090811b620008c017901c565b610120526200008581600262000181602090811b620008c017901c565b61014052815160208084019190912060e052815190820120610100524660a0526200011360e05161010051604080517f8b73c3c69bb8fe3d512ecc4cf759cc79239f7b179b0ffacaa9a75d522b39400f60208201529081019290925260608201524660808201523060a082015260009060c00160405160208183030381529060405280519060200120905090565b60805250503060c052336200012881620001d5565b505050620005e2565b600080546001600160a01b038381166001600160a01b0319831681178455604051919092169283917f8be0079c531659141344cd1fd0a4f28419497f9722a3daafe3b4186f6b6457e09190a35050565b6000602083511015620001a1576200019983620002c0565b9050620001cf565b82620001b8836200030360201b620008f71760201c565b8151620001c9926020019062000364565b5060ff90505b92915050565b620001df62000306565b6001600160a01b03811660009081526004602052604090205460ff1615620002745760405162461bcd60e51b815260206004820152603360248201527f41776c466f727761726465723a2073656e64657220616464726573732069732060448201527f616c72656164792077686974656c69737465640000000000000000000000000060648201526084015b60405180910390fd5b6001600160a01b038116600081815260046020526040808220805460ff19166001179055517f4f783c179409b4127238bc9c990bc99b9a651666a0d20b51d6c42849eb88466d9190a250565b600080829050601f81511115620002ee578260405163305a27a960e01b81526004016200026b91906200054e565b8051620002fb8262000583565b179392505050565b90565b6000546001600160a01b03163314620003625760405162461bcd60e51b815260206004820181905260248201527f4f776e61626c653a2063616c6c6572206973206e6f7420746865206f776e657260448201526064016200026b565b565b8280546200037290620005ab565b90600052602060002090601f016020900481019282620003965760008555620003e1565b82601f10620003b157805160ff1916838001178555620003e1565b82800160010185558215620003e1579182015b82811115620003e1578251825591602001919060010190620003c4565b50620003ef929150620003f3565b5090565b5b80821115620003ef5760008155600101620003f4565b634e487b7160e01b600052604160045260246000fd5b60005b838110156200043d57818101518382015260200162000423565b838111156200044d576000848401525b50505050565b600082601f8301126200046557600080fd5b81516001600160401b03808211156200048257620004826200040a565b604051601f8301601f19908116603f01168101908282118183101715620004ad57620004ad6200040a565b81604052838152866020858801011115620004c757600080fd5b620004da84602083016020890162000420565b9695505050505050565b60008060408385031215620004f857600080fd5b82516001600160401b03808211156200051057600080fd5b6200051e8683870162000453565b935060208501519150808211156200053557600080fd5b50620005448582860162000453565b9150509250929050565b60208152600082518060208401526200056f81604085016020870162000420565b601f01601f19169190910160400192915050565b80516020808301519190811015620005a5576000198160200360031b1b821691505b50919050565b600181811c90821680620005c057607f821691505b60208210811415620005a557634e487b7160e01b600052602260045260246000fd5b60805160a05160c05160e0516101005161012051610140516116366200063d60003960006107330152600061070801526000610a3301526000610a0b0152600061096601526000610990015260006109ba01526116366000f3fe6080604052600436106100ad5760003560e01c806301a9a352146100b25780632d0335ab146100d45780633644e5151461011d5780633af32abf146101325780633f113a61146101625780633f4ba83a1461018257806347153f82146101975780635c975abb146101b7578063715018a6146101cc5780638456cb59146101e157806384b0196e146101f65780638da5cb5b1461021e578063bf5d3bdb14610240578063f2fde38b14610260575b600080fd5b3480156100be57600080fd5b506100d26100cd366004611144565b610280565b005b3480156100e057600080fd5b5061010a6100ef366004611144565b6001600160a01b031660009081526003602052604090205490565b6040519081526020015b60405180910390f35b34801561012957600080fd5b5061010a6102d1565b34801561013e57600080fd5b5061015261014d366004611144565b6102e0565b6040519015158152602001610114565b34801561016e57600080fd5b506100d261017d366004611144565b6102fe565b34801561018e57600080fd5b506100d26103c9565b6101aa6101a5366004611166565b6103db565b6040516101149190611260565b3480156101c357600080fd5b506101526106c8565b3480156101d857600080fd5b506100d26106d8565b3480156101ed57600080fd5b506100d26106ea565b34801561020257600080fd5b5061020b6106fa565b6040516101149796959493929190611273565b34801561022a57600080fd5b50610233610783565b6040516101149190611309565b34801561024c57600080fd5b5061015261025b366004611463565b610792565b34801561026c57600080fd5b506100d261027b366004611144565b610847565b6102886108fa565b6001600160a01b038116600081815260046020526040808220805460ff19169055517f535611fb62fa2a833988f283b779e417e996813e44046f521d76c17b5943b08c9190a250565b60006102db610959565b905090565b6001600160a01b031660009081526004602052604090205460ff1690565b6103066108fa565b61030f816102e0565b1561037d5760405162461bcd60e51b815260206004820152603360248201527f41776c466f727761726465723a2073656e646572206164647265737320697320604482015272185b1c9958591e481dda1a5d195b1a5cdd1959606a1b60648201526084015b60405180910390fd5b6001600160a01b038116600081815260046020526040808220805460ff19166001179055517f4f783c179409b4127238bc9c990bc99b9a651666a0d20b51d6c42849eb88466d9190a250565b6103d16108fa565b6103d9610a84565b565b60606103e5610ad3565b3360009081526004602052604090205460ff166104685760405162461bcd60e51b815260206004820152603b60248201527f41776c466f727761726465723a2073656e646572206f66206d6574612d74726160448201527a1b9cd858dd1a5bdb881a5cc81b9bdd081dda1a5d195b1a5cdd1959602a1b6064820152608401610374565b6104b0610474856114c6565b84848080601f01602080910402602001604051908101604052809392919081815260200183838082843760009201919091525061079292505050565b6105135760405162461bcd60e51b815260206004820152602e60248201527f41776c466f727761726465723a207369676e617475726520646f6573206e6f7460448201526d081b585d18da081c995c5d595cdd60921b6064820152608401610374565b610522608085013560016114d2565b600360006105336020880188611144565b6001600160a01b03166001600160a01b031681526020019081526020016000208190555060008085602001602081019061056d9190611144565b6001600160a01b0316604087013561058860a08901896114f8565b61059560208b018b611144565b6040516020016105a79392919061153e565b60408051601f19818403018152908290526105c19161155f565b60006040518083038185875af1925050503d80600081146105fe576040519150601f19603f3d011682016040523d82523d6000602084013e610603565b606091505b50915091508161063e5760405162461bcd60e51b81526004016103749060208082526004908201526319985a5b60e21b604082015260600190565b61064b60a08701876114f8565b60405161065992919061157b565b60405180910390208660200160208101906106749190611144565b6001600160a01b031661068a6020890189611144565b6001600160a01b03167f5845892132946850460bff5a0083f71031bc5bf9aadcd40f1de79423eac9b10b60405160405180910390a495945050505050565b600054600160a01b900460ff1690565b6106e06108fa565b6103d96000610b1b565b6106f26108fa565b6103d9610b6b565b60006060808280808361072e7f00000000000000000000000000000000000000000000000000000000000000006001610bae565b6107597f00000000000000000000000000000000000000000000000000000000000000006002610bae565b60408051600080825260208201909252600f60f81b9b939a50919850469750309650945092509050565b6000546001600160a01b031690565b608082015182516001600160a01b03166000908152600360205260408120549091146107f05760405162461bcd60e51b815260206004820152600d60248201526c696e76616c6964206e6f6e636560981b6044820152606401610374565b60006107fb84610c52565b905060006108098285610d05565b905084600001516001600160a01b0316816001600160a01b031614801561083c575084516001600160a01b038281169116145b925050505b92915050565b61084f6108fa565b6001600160a01b0381166108b45760405162461bcd60e51b815260206004820152602660248201527f4f776e61626c653a206e6577206f776e657220697320746865207a65726f206160448201526564647265737360d01b6064820152608401610374565b6108bd81610b1b565b50565b60006020835110156108dc576108d583610d29565b9050610841565b828281516108ed926020019061108f565b5060ff9050610841565b90565b33610903610783565b6001600160a01b0316146103d95760405162461bcd60e51b815260206004820181905260248201527f4f776e61626c653a2063616c6c6572206973206e6f7420746865206f776e65726044820152606401610374565b6000306001600160a01b037f0000000000000000000000000000000000000000000000000000000000000000161480156109b257507f000000000000000000000000000000000000000000000000000000000000000046145b156109dc57507f000000000000000000000000000000000000000000000000000000000000000090565b6102db604080517f8b73c3c69bb8fe3d512ecc4cf759cc79239f7b179b0ffacaa9a75d522b39400f60208201527f0000000000000000000000000000000000000000000000000000000000000000918101919091527f000000000000000000000000000000000000000000000000000000000000000060608201524660808201523060a082015260009060c00160405160208183030381529060405280519060200120905090565b610a8c610d67565b6000805460ff60a01b191690557f5db9ee0a495bf2e6ff9c91a7834c1ba4fdd244a5e8aa4e537bd38aeae4b073aa335b604051610ac99190611309565b60405180910390a1565b610adb6106c8565b156103d95760405162461bcd60e51b815260206004820152601060248201526f14185d5cd8589b194e881c185d5cd95960821b6044820152606401610374565b600080546001600160a01b038381166001600160a01b0319831681178455604051919092169283917f8be0079c531659141344cd1fd0a4f28419497f9722a3daafe3b4186f6b6457e09190a35050565b610b73610ad3565b6000805460ff60a01b1916600160a01b1790557f62e78cea01bee320cd4e420270b5ea74000d11b0c9f74754ebdbfc544b05a258610abc3390565b606060ff8314610bc1576108d583610db2565b818054610bcd9061158b565b80601f0160208091040260200160405190810160405280929190818152602001828054610bf99061158b565b8015610c465780601f10610c1b57610100808354040283529160200191610c46565b820191906000526020600020905b815481529060010190602001808311610c2957829003601f168201915b50505050509050610841565b60006108417fdd8f4b70b0f4393e889bd39128a30628a78b61816a9eb8199759e7a349657e48836000015184602001518560400151866060015187608001518860a0015180519060200120604051602001610cea97969594939291909687526001600160a01b0395861660208801529390941660408601526060850191909152608084015260a083019190915260c082015260e00190565b60405160208183030381529060405280519060200120610df1565b6000806000610d148585610e1e565b91509150610d2181610e64565b509392505050565b600080829050601f81511115610d54578260405163305a27a960e01b81526004016103749190611260565b8051610d5f826115c6565b179392505050565b610d6f6106c8565b6103d95760405162461bcd60e51b815260206004820152601460248201527314185d5cd8589b194e881b9bdd081c185d5cd95960621b6044820152606401610374565b60606000610dbf83610fad565b604080516020808252818301909252919250600091906020820181803683375050509182525060208101929092525090565b6000610841610dfe610959565b8360405161190160f01b8152600281019290925260228201526042902090565b600080825160411415610e555760208301516040840151606085015160001a610e4987828585610fd5565b94509450505050610e5d565b506000905060025b9250929050565b6000816004811115610e7857610e786115ea565b1415610e815750565b6001816004811115610e9557610e956115ea565b1415610ede5760405162461bcd60e51b815260206004820152601860248201527745434453413a20696e76616c6964207369676e617475726560401b6044820152606401610374565b6002816004811115610ef257610ef26115ea565b1415610f405760405162461bcd60e51b815260206004820152601f60248201527f45434453413a20696e76616c6964207369676e6174757265206c656e677468006044820152606401610374565b6003816004811115610f5457610f546115ea565b14156108bd5760405162461bcd60e51b815260206004820152602260248201527f45434453413a20696e76616c6964207369676e6174757265202773272076616c604482015261756560f01b6064820152608401610374565b600060ff8216601f81111561084157604051632cd44ac360e21b815260040160405180910390fd5b6000806fa2a8918ca85bafe22016d0b997e4df60600160ff1b038311156110025750600090506003611086565b6040805160008082526020820180845289905260ff881692820192909252606081018690526080810185905260019060a0016020604051602081039080840390855afa158015611056573d6000803e3d6000fd5b5050604051601f1901519150506001600160a01b03811661107f57600060019250925050611086565b9150600090505b94509492505050565b82805461109b9061158b565b90600052602060002090601f0160209004810192826110bd5760008555611103565b82601f106110d657805160ff1916838001178555611103565b82800160010185558215611103579182015b828111156111035782518255916020019190600101906110e8565b5061110f929150611113565b5090565b5b8082111561110f5760008155600101611114565b80356001600160a01b038116811461113f57600080fd5b919050565b60006020828403121561115657600080fd5b61115f82611128565b9392505050565b60008060006040848603121561117b57600080fd5b83356001600160401b038082111561119257600080fd5b9085019060c082880312156111a657600080fd5b909350602085013590808211156111bc57600080fd5b818601915086601f8301126111d057600080fd5b8135818111156111df57600080fd5b8760208285010111156111f157600080fd5b6020830194508093505050509250925092565b60005b8381101561121f578181015183820152602001611207565b8381111561122e576000848401525b50505050565b6000815180845261124c816020860160208601611204565b601f01601f19169290920160200192915050565b60208152600061115f6020830184611234565b60ff60f81b881681526000602060e08184015261129360e084018a611234565b83810360408501526112a5818a611234565b606085018990526001600160a01b038816608086015260a0850187905284810360c0860152855180825283870192509083019060005b818110156112f7578351835292840192918401916001016112db565b50909c9b505050505050505050505050565b6001600160a01b0391909116815260200190565b634e487b7160e01b600052604160045260246000fd5b600082601f83011261134457600080fd5b81356001600160401b038082111561135e5761135e61131d565b604051601f8301601f19908116603f011681019082821181831017156113865761138661131d565b8160405283815286602085880101111561139f57600080fd5b836020870160208301376000602085830101528094505050505092915050565b600060c082840312156113d157600080fd5b60405160c081016001600160401b0380821183831017156113f4576113f461131d565b8160405282935061140485611128565b835261141260208601611128565b602084015260408501356040840152606085013560608401526080850135608084015260a085013591508082111561144957600080fd5b5061145685828601611333565b60a0830152505092915050565b6000806040838503121561147657600080fd5b82356001600160401b038082111561148d57600080fd5b611499868387016113bf565b935060208501359150808211156114af57600080fd5b506114bc85828601611333565b9150509250929050565b600061084136836113bf565b600082198211156114f357634e487b7160e01b600052601160045260246000fd5b500190565b6000808335601e1984360301811261150f57600080fd5b8301803591506001600160401b0382111561152957600080fd5b602001915036819003821315610e5d57600080fd5b8284823760609190911b6001600160601b0319169101908152601401919050565b60008251611571818460208701611204565b9190910192915050565b8183823760009101908152919050565b600181811c9082168061159f57607f821691505b602082108114156115c057634e487b7160e01b600052602260045260246000fd5b50919050565b805160208083015191908110156115c05760001960209190910360031b1b16919050565b634e487b7160e01b600052602160045260246000fdfea26469706673582212201b854dcfdf7d02aea8acdfa2ae4cb09f89c5c4f582d5ab0979f4101f51e9245964736f6c634300080a0033",
  "linkReferences": {},
  "deployedLinkReferences": {}
}