{
  "_format": "hh-sol-artifact-1",
  "contractName": "Example",
  "sourceName": "contracts/Example.sol",
  "abi": [
    {
      "inputs": [
        {
          "internalType": "address",
          "name": "trustedForwarder_",
          "type": "address"
        }
      ],
      "stateMutability": "nonpayable",
      "type": "constructor"
    },
    {
      "inputs": [],
      "name": "a",
      "outputs": [
        {
          "internalType": "uint256",
          "name": "",
          "type": "uint256"
        }
      ],
      "stateMutability": "view",
      "type": "function"
    },
    {
      "inputs": [
        {
          "internalType": "uint256",
          "name": "_a",
          "type": "uint256"
        }
      ],
      "name": "increase",
      "outputs": [],
      "stateMutability": "nonpayable",
      "type": "function"
    },
    {
      "inputs": [
        {
          "internalType": "address",
          "name": "forwarder",
          "type": "address"
        }
      ],
      "name": "isTrustedForwarder",
      "outputs": [
        {
          "internalType": "bool",
          "name": "",
          "type": "bool"
        }
      ],
      "stateMutability": "view",
      "type": "function"
    }
  ],
  "bytecode": "0x60a0604052600260005534801561001557600080fd5b5060405161020f38038061020f83398101604081905261003491610045565b6001600160a01b0316608052610075565b60006020828403121561005757600080fd5b81516001600160a01b038116811461006e57600080fd5b9392505050565b60805161018061008f6000396000608701526101806000f3fe608060405234801561001057600080fd5b50600436106100415760003560e01c80630dbe671f1461004657806330f3f0db14610062578063572b6c0514610077575b600080fd5b61004f60005481565b6040519081526020015b60405180910390f35b6100756100703660046100db565b6100c7565b005b6100b76100853660046100f4565b7f00000000000000000000000000000000000000000000000000000000000000006001600160a01b0390811691161490565b6040519015158152602001610059565b806000546100d59190610124565b60005550565b6000602082840312156100ed57600080fd5b5035919050565b60006020828403121561010657600080fd5b81356001600160a01b038116811461011d57600080fd5b9392505050565b6000821982111561014557634e487b7160e01b600052601160045260246000fd5b50019056fea264697066735822122047b993cb810f73051bb94c7ed5801e108dc96469cd81c915ec814b7e9c40be8a64736f6c634300080a0033",
  "linkReferences": {},
  "deployedLinkReferences": {}
}