{
  "_format": "hh-sol-artifact-1",
  "contractName": "Caller",
  "sourceName": "contracts/TestCounter.sol",
  "abi": [
    {
      "inputs": [
        {
          "internalType": "address",
          "name": "_ex",
          "type": "address"
        },
        {
          "internalType": "uint256",
          "name": "_a",
          "type": "uint256"
        }
      ],
      "name": "trans",
      "outputs": [
        {
          "internalType": "bool",
          "name": "",
          "type": "bool"
        },
        {
          "internalType": "bytes",
          "name": "",
          "type": "bytes"
        }
      ],
      "stateMutability": "nonpayable",
      "type": "function"
    }
  ],
  "bytecode": "0x608060405234801561001057600080fd5b506101f4806100206000396000f3fe608060405234801561001057600080fd5b506004361061002b5760003560e01c80633d2bc6de14610030575b600080fd5b61004361003e3660046100fe565b61005a565b604051610051929190610166565b60405180910390f35b60006060836001600160a01b03168360405160240161007b91815260200190565b60408051601f198184030181529181526020820180516001600160e01b03166330f3f0db60e01b179052516100b091906101a2565b6000604051808303816000865af19150503d80600081146100ed576040519150601f19603f3d011682016040523d82523d6000602084013e6100f2565b606091505b50915091509250929050565b6000806040838503121561011157600080fd5b82356001600160a01b038116811461012857600080fd5b946020939093013593505050565b60005b83811015610151578181015183820152602001610139565b83811115610160576000848401525b50505050565b8215158152604060208201526000825180604084015261018d816060850160208701610136565b601f01601f1916919091016060019392505050565b600082516101b4818460208701610136565b919091019291505056fea2646970667358221220b19969d0ecd22c47e6cdb7578d8d96ba5fa3f25048ee4cfc149967e4fec3819764736f6c634300080a0033",
  "linkReferences": {},
  "deployedLinkReferences": {}
}