{
  "_format": "hh-sol-artifact-1",
  "contractName": "Counter",
  "sourceName": "contracts/TestCounter.sol",
  "abi": [
    {
      "inputs": [],
      "name": "a",
      "outputs": [
        {
          "internalType": "uint256",
          "name": "",
          "type": "uint256"
        }
      ],
      "stateMutability": "view",
      "type": "function"
    },
    {
      "inputs": [
        {
          "internalType": "uint256",
          "name": "_a",
          "type": "uint256"
        }
      ],
      "name": "increase",
      "outputs": [],
      "stateMutability": "nonpayable",
      "type": "function"
    }
  ],
  "bytecode": "0x608060405234801561001057600080fd5b5060e78061001f6000396000f3fe6080604052348015600f57600080fd5b506004361060325760003560e01c80630dbe671f14603757806330f3f0db146051575b600080fd5b603f60005481565b60405190815260200160405180910390f35b6060605c3660046074565b6062565b005b80600054606e9190608c565b60005550565b600060208284031215608557600080fd5b5035919050565b6000821982111560ac57634e487b7160e01b600052601160045260246000fd5b50019056fea26469706673582212202e0153767e26a9b4ce67cfd993e7973eba1c3bfb931a6e618113e612bf67feb864736f6c634300080a0033",
  "linkReferences": {},
  "deployedLinkReferences": {}
}